:020000040800F2
:1000000000400020CD0C0008F91500080516000876
:1000100000000000000000000000000000000000E0
:100020000000000000000000000000000D160008A5
:100030000000000000000000191600082516000846
:10004000110D0008110D0008110D0008110D000818
:10005000110D0008110D0008110D0008110D000808
:10006000110D0008110D0008110D0008110D0008F8
:10007000110D0008110D0008110D0008110D0008E8
:10008000110D0008110D0008110D0008110D0008D8
:10009000110D0008110D0008110D0008110D0008C8
:1000A000110D0008110D0008110D000831050008A0
:1000B000110D0008110D0008110D0008110D0008A8
:1000C0005FF808F180B588B000AF78600023FB616D
:1000D0000023BB6100237B6100233B610023FB60A5
:1000E0008A4B5B680C221340FB61FB69042B0CD02C
:1000F00002D8002B05D03AE0082B0AD00C2B32D0C6
:1001000035E07B68824A1A6035E07B68804A1A6075
:1001100031E07E4B5A68F0239B031340BB617B4B5D
:100120005A68C0235B0213407B61BB699B0C02339E
:10013000BB617B69002B05D1BB69764A5A437B685A
:100140001A6018E0714BDB6A0F22134001333B61E8
:1001500039696F4801F0C4FA03001A00BB695A43B9
:100160007B681A6007E07B686B4A1A6003E07B6873
:10017000674A1A60C046654B5B68F0221340FB611A
:10018000FB691B09FB61654AFB69D3181B78DBB26D
:10019000FB607B681A68FB68DA407B685A605B4BDF
:1001A0005A68E023DB001340FB61FB691B0AFB611B
:1001B0005A4AFB69D3181B78DBB2FB607B685A682C
:1001C000FB68DA407B689A60504B1A6B80235B00B7
:1001D000134003D17B68524ADA6010E04B4B5A68F7
:1001E0008023DB01134005D17B689B685A087B683C
:1001F000DA6004E07B689B689A087B68DA60434BAE
:100200001B6B4022134003D17B68464A1A6103E00E
:100210007B68802212021A613C4B1B6B1022134038
:1002200003D17B683A4A5A6103E07B681A687B68AD
:100230005A61364B1B6B0322134004D17B689A68CA
:100240007B689A611EE0314B1B6B03221340012B2C
:1002500004D17B681A687B689A6113E02B4B1B6B97
:1002600003221340022B04D17B68802212029A6180
:1002700008E0264B1B6B03221340032B02D17B6843
:10028000234A9A61214B1A6BC0239B02134004D16D
:100290007B689A687B68DA6127E01C4B1A6BC02385
:1002A0009B021A4080235B029A4204D17B681A6841
:1002B0007B68DA6119E0154B1A6BC0239B021A4068
:1002C00080239B029A4204D17B6880221202DA6169
:1002D0000BE00E4B1A6BC0239B021A40C0239B02FB
:1002E0009A4202D17B680A4ADA61084B1B6B802272
:1002F000134003D17B68084A1A6203E07B681A68DE
:100300007B681A62C046BD4608B080BD001002403E
:1003100000127A0000093D00006CDC0200000020A1
:10032000809FD5001280000080B582B000AF786059
:100330000A00FB1C1A70FB1C1B78002B06D0094B13
:10034000084A51697A680A435A6106E0054B054A32
:1003500052697968C9430A405A61C046BD4602B035
:1003600080BDC0460010024080B582B000AF78600A
:100370000A00FB1C1A70FB1C1B78002B06D0094BD3
:10038000084A91697A680A439A6106E0054B054A72
:1003900092697968C9430A409A61C046BD4602B075
:1003A00080BDC0460010024080B582B000AF7860CA
:1003B0000A00FB1C1A70FB1C1B78002B06D0094B93
:1003C000084AD1697A680A43DA6106E0054B054AB2
:1003D000D2697968C9430A40DA61C046BD4602B0B5
:1003E00080BDC0460010024080B588B000AF2E4BE3
:1003F0002D4A5269802189020A435A619023DB0504
:100400009022D205126829490A40A02189030A4393
:100410001A609023DB059022D205526A24490A40D3
:10042000882149000A435A621C23FB181B221A70B8
:100430001C23FB180F225A701C23FB1801229A70F0
:100440001C23FB18180001F0F5F88023DB010121C3
:100450001800FFF789FF3B1D962292011A603B1D91
:1004600000225A603B1D00229A603B1D0022DA6088
:100470003B1D0C221A613B1D00225A613B1D0D4A97
:100480001900100000F07CFE0B490A4B01221800F5
:1004900000F06EFF074B0121180000F02BFFC04653
:1004A000BD4608B080BDC04600100240FFFFC3FF3C
:1004B0000FF0FFFF003801400501050080B584B052
:1004C00000AF78607B68180001F06CFA02000C2322
:1004D000FB181A800E23FB1800221A801AE00E2344
:1004E000FB181B887A68D3181B789BB20F4A190037
:1004F000100000F01DFFC0460C4B4021180000F01A
:100500007BFF031EF8D00E23FB181A880E23FB185E
:1005100001321A800E23FA180C23FB1812881B884C
:100520009A42DCD3C046BD4604B080BD00380140CD
:10053000B0B500AF0C4A0D4B1100180000F07AFF67
:10054000031E0ED00A4B1B785A1CD1B2084A1170F8
:100550001C00064B180000F0FDFE0300DAB2054B4C
:100560001A55C046BD46B0BD050105000038014022
:10057000C8080020CC08002080B58AB000AF7860A1
:100580007B68434A934207D12023FB18414A190054
:10059000100000F0CDFC3DE07B683F4A934239D12A
:1005A0008023DB0201211800FFF7BEFE8023DB0160
:1005B00001211800FFF7F8FE364B00220D2118002C
:1005C00000F06EFD334B00220E21180000F068FD94
:1005D000304B00220F21180000F062FD2023FB1891
:1005E000E02212021A602023FB1802221A71202333
:1005F000FB1803225A712023FB1800229A71202332
:10060000FB180022DA712023FB18224A190010007F
:1006100000F08EFC0C23FB1810229A810C23FB188F
:1006200000221A800C23FB18822252005A800C23CD
:10063000FB18E022D2009A800C23FB180022DA80FB
:100640000C23FB1800221A810C23FB188022920035
:100650005A810C23FB180022DA810C23FB18072295
:100660001A820C23FA187B681100180000F052FB64
:1006700080235B01084A1900100000F0EFFB7B6843
:100680000121180000F0CAFBC046BD460AB080BD7B
:1006900000300140000400480038004080B582B0BE
:1006A00000AF78600A00FB1C1A70C0467B6802210C
:1006B000180000F019FC031EF8D0FB1C1A787B68A8
:1006C0001100180000F0E8FBC0467B68012118000B
:1006D00000F00AFC031EF8D07B68180000F0F2FB63
:1006E000C046BD4602B080BD80B582B000AF786024
:1006F0000A00FB1C1A70C0467B680221180000F03B
:10070000F3FB031EF8D0FB1C1A787B68110018005D
:1007100000F0C2FBC0467B680121180000F0E4FB3A
:10072000031EF8D07B68180000F0CCFB0300180013
:10073000BD4602B080BDC04680B582B000AF0200A9
:10074000FB1D1A70FB1DFA1D1278013A1A70FB1D71
:100750001B78002BF6D1C046BD4602B080BDC04616
:1007600090B585B000AF0200FB1D1A70BB1D0A1CBE
:100770001A70114B2021180000F082FC0F23FC1886
:10078000FB1D1B780D4A19001000FFF7ADFF030099
:100790002370BB1D1B78094A19001000FFF77EFF6C
:1007A000054B2021180000F05BFC0F23FB181B7881
:1007B0001800BD4605B090BD000400480038004058
:1007C00090B585B000AF0200FB1D1A70104B2021C0
:1007D000180000F055FCFB1D1B780E4A1900100094
:1007E000FFF75CFF0F23FC180A4B00211800FFF7EE
:1007F0007BFF03002370064B2021180000F030FC23
:100800000F23FB181B781800BD4605B090BDC046ED
:10081000000400480038004090B585B000AF396052
:100820001100FB1D021C1A70BB1D0A1C1A701D4B07
:100830002021180000F024FC0E23FC18FB1D1B785F
:10084000194A19001000FFF74FFF030023700F2310
:10085000FB1800221A7012E00F23FB181B783A686D
:10086000D418114B00211800FFF73EFF030023703E
:100870000F23FB181A780F23FB1801321A700F236D
:10088000FA18BB1D12781B789A42E5D3054B20213C
:10089000180000F0E5FB0E23FB181B781800BD467E
:1008A00005B090BD000400480038004090B585B008
:1008B00000AF39601100FB1D021C1A70BB1D0A1C21
:1008C0001A701D4B2021180000F0DAFB0E23FC18D3
:1008D000FB1D1B78194A19001000FFF705FF0300E4
:1008E00023700120FFF728FF0F23FB1800221A7046
:1008F0000FE03B685A1C3A601B78104A1900100040
:10090000FFF7CCFE0F23FB181A780F23FB180132D8
:100910001A700F23FA18BB1D12781B789A42E8D37D
:10092000054B2021180000F09BFB0E23FB181B78C1
:100930001800BD4605B090BD0004004800380040D6
:1009400080B500AF154B0821180000F099FB144B3F
:10095000052219002A20FFF7A9FF20213120FFF7E7
:10096000FFFE3F212120FFF7FBFE3F212220FFF762
:10097000F7FE28212520FFF7F3FE07212620FFF7A9
:10098000EFFE0F212020FFF7EBFE044B082118009B
:1009900000F066FBC046BD4680BDC046000400486E
:1009A0001000002080B582B000AF8023DB0201215F
:1009B0001800FFF7B9FC3B0028221A603B00012217
:1009C0001A713B0003225A713B0000229A713B00CE
:1009D0000F4A1900100000F0ABFA3B0010221A6019
:1009E0003B0000221A713B0000229A713B00012259
:1009F000DA713B00064A1900100000F099FA054B25
:100A00001800FFF7B9FDC046BD4602B080BDC04624
:100A1000000400480038004090B5B5B000AFCF23C7
:100A2000FB1801221A70344B1800FFF7A5FDFFF7E1
:100A300087FF324B0821180000F022FB0A20FFF745
:100A40007BFECF23FC180720FFF7BAFE03002370BC
:100A50006823FB1800221A6004336022002118006A
:100A600000F008FFCF23FB181A7825496823FB18EC
:100A7000180000F045FF6823FB181800FFF71EFD63
:100A8000CF23FB181B78402213402BD01D4B202274
:100A900019006120FFF7C0FE3B1D00221A600433DD
:100AA00060220021180000F0E5FE3B1D180000F058
:100AB00079FF03001A003B1D9A18134B1000190010
:100AC00008231A0000F098FE0E4A3B1D1100180082
:100AD00000F038FF3B1D1800FFF7F0FC40212720F5
:100AE000FFF73EFE054B0821180000F0B9FAC0469A
:100AF000BD4635B090BDC0460038004000040048F7
:100B00003C7800089409002090780008B0B582B0C5
:100B100000AF02003960FB1D1A70FB1D1B787F2B94
:100B200032D92F4CFB1D1B781A000F231340083BB2
:100B300099082B4AFB1D1B7818000F230340083B24
:100B40009B0806339B00D31804331B68FA1D1278E8
:100B5000100003220240D200FF2090400200D24346
:100B60001A403B689B01FF201840FB1D1B781D00AD
:100B700003232B40DB00984003001A438B1D9B008E
:100B8000E31804331A6027E0164CFB1D1B785BB298
:100B90009B081449FA1D127852B29208C032920092
:100BA0005258F91D0978080003210140C900FF20AF
:100BB00088400100C94311403A689201FF2010406B
:100BC000FA1D1278150003222A40D200904002003C
:100BD0000A43C0339B001A51C046BD4602B0B0BDA7
:100BE00000ED00E000E100E080B582B000AF786089
:100BF0007B680E4A934201D9012312E00C4B7A68BC
:100C00001202120A013A5A6001235B4203211800C2
:100C1000FFF77CFF064B00229A60054B07221A6003
:100C200000231800BD4602B080BDC046FFFFFF0094
:100C300010E000E080B500AF00F054FC0F4B18004E
:100C4000FFF740FA0D4B5B686421180000F048FD87
:100C500003001800FFF7C8FFFFF7C6FB084B18009A
:100C6000FFF72CFCFFF79EFE064B1800FFF726FC53
:100C7000FFF7D2FE322000F007F8F9E7D409002090
:100C800098780008AC78000880B582B000AF786032
:100C9000054B7A681A60C046034B1B68002BFBD1DA
:100CA000C046BD4602B080BD8C08002080B500AFB4
:100CB000054B1B68002B04D0034B1B685A1E024BCC
:100CC0001A60C046BD4680BD8C080020002103E0AC
:100CD0000A4B5B584350043109480A4B42189A4268
:100CE000F6D3094A02E0002313600432074B9A420C
:100CF000F9D300F0F7FBFFF79DFF7047347C000845
:100D0000000000208C0800208C080020FC09002036
:100D1000FEE7000080B584B000AF786039600E2334
:100D2000FB1800221A800E23FB187A6812881A809A
:100D30000E23FB180E22BA181188C12292010A4014
:100D40001A803B681A883B68DB8913439AB23B6878
:100D5000DB8813439AB23B681B8913439AB23B6802
:100D60005B8913439AB23B689B89134399B20E2364
:100D7000FB180E22BA1812880A431A807B680E22CA
:100D8000BA1812881A800E23FB187A6892881A8083
:100D90000E23FB180E22BA1812881E490A401A8028
:100DA0003B6899880E23FB180E22BA1812880A4352
:100DB0001A807B680E22BA1812889A803B681A8AB9
:100DC0007B681A820E23FB187A6812881A800E2319
:100DD000FB180E22BA18128804218A431A803B6835
:100DE00059880E23FB180E22BA1812880A431A805B
:100DF0007B680E22BA1812881A807B689B8B9BB284
:100E0000054A13409AB27B689A83C046BD4604B037
:100E100080BDC046FFF0FFFFFFF7FFFF80B582B047
:100E200000AF78600A00FB1C1A70FB1C1B78002BBB
:100E300008D07B681B889BB2402213439AB27B6820
:100E40001A8007E07B681B889BB2402293439AB2CA
:100E50007B681A80C046BD4602B080BD80B582B0B6
:100E600000AF78600A00BB1C1A807B689B889BB22D
:100E7000084A13409AB27B689A807B689B889AB232
:100E8000BB1C1B8813439AB27B689A80C046BD4640
:100E900002B080BDFFEFFFFF80B584B000AF786087
:100EA0000A00FB1C1A700023FB607B68FB60FB6878
:100EB0000C33FB60FB68FA1C12781A70C046BD4602
:100EC00004B080BD80B584B000AF78600023FB60C3
:100ED0007B68FB60FB680C33FB60FB681B78DBB254
:100EE0001800BD4604B080BD80B584B000AF786006
:100EF0000A00BB1C1A800F23FB1800221A707B68A3
:100F00001B899BB2BA1C128813409BB2002B04D0E1
:100F10000F23FB1801221A7003E00F23FB18002295
:100F20001A700F23FB181B781800BD4604B080BD53
:100F300080B586B000AF7860396000237B61002304
:100F40003B610023FB6000237B6181E001227B6920
:100F50009A4013003B613B681B683A691340FB6091
:100F6000FA683B699A4270D13B681B79012B03D028
:100F70003B681B79022B38D17B689B687A695200E9
:100F8000032191400A00D2431A407B689A607B6833
:100F90009A683B685B7919007B695B0099400B009C
:100FA0001A437B689A607B689B889BB27A691204BB
:100FB000120C012191400A0092B2D24392B2134026
:100FC0009AB27B689A807B689B889BB21AB23B6816
:100FD0009B7919007B691B041B0C99400B001BB209
:100FE00013431BB29AB27B689A807B681B687A694C
:100FF0005200032191400A00D2431A407B681A60D4
:101000007B681A683B681B7919007B695B00994013
:101010000B001A437B681A607B68DB687A691204EC
:10102000120C5200032191400A00D2431A407B68FF
:10103000DA607B68DA683B68DB7919007B695B0002
:1010400099400B001A437B68DA607B6901337B614E
:101050007B690F2B00D879E7C046BD4606B080BD3E
:1010600080B582B000AF78600A00BB1C1A80BB1C40
:101070001A887B689A61C046BD4602B080BDC046F2
:1010800080B582B000AF78600A00BB1C1A807B6814
:10109000BA1C12881A85C046BD4602B080BDC04643
:1010A00080B584B000AF786008001100BB1C021C42
:1010B0001A807B1C0A1C1A700023FB600023BB6093
:1010C0007B1C1A78BB1C1B8807210B409B009A4095
:1010D0001300FB60BB1C1B88DB089BB21800BB1C09
:1010E0001B88DB089BB21A007B6808329200D35839
:1010F000BA1C128807210A4092000F2191400A0071
:10110000D2431A4011007B68020008329200D1508D
:10111000BB1C1B88DB089BB21A007B68083292005C
:10112000D258FB681343BB60BB1C1B88DB089BB217
:101130001A007B6808329200B968D150C046BD469B
:1011400004B080BD80B584B000AF78600A4B1B68E6
:10115000002B02D1084B094A1A60074B1B68FB6041
:10116000054B1A687B68D218034B1A60FB6818009D
:10117000BD4604B080BDC04690080020FC09002098
:1011800080B58EB000AF7860396000237B630023A8
:101190003B630023FB627B681B68012293431A00B8
:1011A0007B681A607B685B68FB62FB6A4B4A134092
:1011B000FB623B689B68FA6A1343FB627B68FA6ACE
:1011C0005A607B681B68FB62FB6A454A1340FB62FE
:1011D0003B685A683B68DB681A433B681B691343EA
:1011E000FA6A1343FB627B68FA6A1A607B689B6841
:1011F000FB62FB6A3B4A1340FB623B685B69FA6A2D
:101200001343FB627B68FA6A9A600823FB18180094
:10121000FEF758FF7B68344A934204D10823FB1839
:101220009B693B630CE07B68304A934204D10823FE
:10123000FB18DB693B6303E00823FB189B683B63F7
:101240007B681A6880231B02134014D03B6B5A0042
:101250003B681B681900100000F042FA03007B6332
:101260003B6B5A003B681B681900100000F0BEFA87
:101270000B00FB6210E03B681B681900386B00F044
:101280002FFA03007B633B681A683B6B1100180060
:1012900000F0ACFA0B00FB623B681B685A08FB6A63
:1012A0009A4202D87B6B01337B637B681A68802388
:1012B0001B0213400AD07B6B5B0807221340FB62C2
:1012C0007B6B0B4A1A40FB6A13437B637B6B9AB2BE
:1012D0007B689A81C046BD460EB080BDFFCFFFFF40
:1012E000F3E9FFFFFFFCFFFF00380140004400402E
:1012F000F0FF000080B582B000AF78600A00FB1CF0
:101300001A70FB1C1B78002B06D07B681B6801221F
:101310001A437B681A6006E07B681B6801229343CE
:101320001A007B681A60C046BD4602B080BDC04648
:1013300080B582B000AF78600A00BB1C1A80BB1C6D
:101340001B88DB05DB0D9AB27B681A85C046BD465B
:1013500002B080BD80B582B000AF78607B689B8CA6
:101360009BB2DB05DB0D9BB21800BD4602B080BD11
:1013700080B588B000AFF860B960FB1D1A7000231B
:10138000BB6100237B6100233B610023FB61FB68A1
:10139000FB61BB681B121A00FF231340BB61BB68D3
:1013A000FF2213407B6101227B699A4013003B615D
:1013B000BB69022B03D1FB690433FB6105E0BB6908
:1013C000032B02D1FB690833FB61FB1D1B78002B4B
:1013D00006D0FB69FA6911683A690A431A6006E0A7
:1013E000FB69FA6912683969C9430A401A60C04644
:1013F000BD4608B080BDC04680B584B000AF7860FF
:1014000039600F23FB1800221A707B68DB693A6889
:10141000134004D00F23FB1801221A7003E00F239E
:10142000FB1800221A700F23FB181B781800BD460A
:1014300004B080BD80B586B000AF7860396000230D
:10144000FB6000237B610023BB601323FB18002299
:101450001A703B681B121A00FF231340BB603B68E5
:10146000FF2213407B6101227B699A4013007B615C
:10147000BB68012B05D17B681A687B6913407B61CF
:101480000DE0BB68022B05D17B685A687B6913406D
:101490007B6104E07B689A687B6913407B613B68F1
:1014A0001B0CFB600122FB689A401300FB607B6809
:1014B000DA69FB681340FB607B69002B07D0FB688F
:1014C000002B04D01323FB1801221A7003E013230E
:1014D000FB1800221A701323FB181B781800BD4656
:1014E00006B080BD80B500AF1B4B1B4A12680121BE
:1014F0000A431A60184B184A526818490A405A6041
:10150000154B154A126816490A401A60124B124AC6
:10151000126814490A401A600F4B0F4A5268124968
:101520000A405A600C4B0C4AD26A0F218A43DA6295
:10153000094B094A126B0D490A401A63064B064AC9
:10154000526B01218A435A63034B00229A6000F0D8
:101550000FF8C046BD4680BD001002400CB8FFF831
:10156000FFFFF6FEFFFFFBFFFFFFC0FFACFEFFFF2C
:1015700080B500AF1D4B11221A601D4B1C4A5268EA
:101580005A601B4B1A4A52685A60194B184A5268E3
:1015900018490A405A60164B154A5268A02189031F
:1015A0000A435A60124B124A1268802149040A43C6
:1015B0001A60C0460E4B1A6880239B041340F9D072
:1015C0000B4B0B4A526803218A435A60084B084A66
:1015D000526802210A435A60C046054B5B680C22E0
:1015E0001340082BF9D1C046BD4680BD0020024003
:1015F00000100240FF7FC0FF80B500AFC046BD466F
:1016000080BDC04680B500AFFEE7C04680B500AFE4
:10161000C046BD4680BDC04680B500AFC046BD4691
:1016200080BDC04680B500AFFFF740FBC046BD4659
:1016300080BDC04680B584B000AF78600023FB60F9
:101640007B689B78002B39D0244A7B681B789B08E9
:10165000DBB2C0339B009B58FB607B681B781A0091
:1016600003231340DB00FF229A401300DA43FB6898
:101670001340FB607B685B789B01FF221A407B680C
:101680001B78190003230B40DB009A401300FA6813
:101690001343FB6011497B681B789B08DBB2C033A6
:1016A0009B00FA685A500D4B7A68127811001F227D
:1016B0000A40012191400A001A600AE007497B684C
:1016C0001B781A001F23134001229A401300802226
:1016D0008B50C046BD4604B080BDC04600E100E06E
:1016E000002243088B4274D303098B425FD3030A61
:1016F0008B4244D3030B8B4228D3030C8B420DD374
:10170000FF22090212BA030C8B4202D31212090201
:1017100065D0030B8B4219D300E0090AC30B8B423F
:1017200001D3CB03C01A5241830B8B4201D38B03ED
:10173000C01A5241430B8B4201D34B03C01A524192
:10174000030B8B4201D30B03C01A5241C30A8B42D5
:1017500001D3CB02C01A5241830A8B4201D38B02C0
:10176000C01A5241430A8B4201D34B02C01A524164
:10177000030A8B4201D30B02C01A5241CDD2C309D6
:101780008B4201D3CB01C01A524183098B4201D352
:101790008B01C01A524143098B4201D34B01C01A3D
:1017A000524103098B4201D30B01C01A5241C308B5
:1017B0008B4201D3CB00C01A524183088B4201D324
:1017C0008B00C01A524143088B4201D34B00C01A10
:1017D0005241411A00D20146524110467047FFE77C
:1017E00001B5002000F006F802BDC0460029F7D080
:1017F00076E770477047C04670B50F2A32D90C00A3
:1018000004430B00A40731D115000400103D2D093D
:1018100001352D0149191E6826605E6866609E6864
:10182000A660DE681033E66010349942F3D10F23CE
:1018300045191340032B1BD91C1F0023A408013496
:10184000A400CE58EE5004339C42FAD103232D1944
:1018500009191A4005D00023CC5CEC5401339A429C
:10186000FAD170BD0500002AF5D1FAE70500F2E7CC
:101870001A00F8E770B583073FD0541E002A3BD00A
:10188000CEB20300032503E0621E002C34D0140006
:1018900001335A1E16702B42F6D1032C24D9FF2592
:1018A0000D402A0215432A0415430F2C11D9260096
:1018B000103E3609013636011A009B191560556035
:1018C0009560D56010329342F8D10F221440032C5A
:1018D0000AD9261FB6080136B6001A009B1920C285
:1018E0009342FCD103221440002C05D0C9B21C192C
:1018F000197001339C42FBD170BD14000300CCE78A
:101900000EB410B59DB002A9029008610B48822464
:1019100088604861012040421FABC881084804CB61
:10192000A400006801938C8100F070F80023029AF3
:1019300013701DB010BC08BC03B01847FFFFFF7F39
:101940004004002070B50500830717D102680F4BD3
:10195000D31893430E4A140013420FD10430026887
:101960000A4BD3189343234208D104300268074B33
:10197000D31893432342F1D000E001300378002BC9
:10198000FBD100F007F8280070BDC046FFFEFEFE48
:1019900080808080031C0A7801311A700133002A8C
:1019A000F9D1704710B5830727D00378002B26D0D4
:1019B0000300032102E01A78002A1CD001330B42F5
:1019C000F9D119680F4A104C8A188A4322420FD164
:1019D000043319680B4A8A188A43224208D1043317
:1019E0001968084A8A188A432242F1D000E001337C
:1019F0001A78002AFBD1181A10BD0300E1E7002075
:101A0000FAE7C046FFFEFEFE80808080F0B55F46AC
:101A1000444656464D46F0B4C3B00C0011930791AE
:101A20009346099002F054FC00681990FFF7BAFF42
:101A30001890A3891B0605D523690893002B01D1B3
:101A400001F06CF932AB2593002325AFBB607B60BE
:101A500014931693179332AE1A930C935B461B782C
:101A60005C46002B1CD0252B02D119E0252B03D07E
:101A700001342378002BF9D15B46E51A10D05B4680
:101A80003360BB6875605B19BB607B6801337B604A
:101A9000072B61DC08360C9B9C46AC4463460C93D8
:101AA0002378002B61D0012040420B900020631C62
:101AB0009B4600230D90089010308146303016AAC6
:101AC00084464030D3770021002282465D46637809
:101AD00001351C00203C582C00D9ABE3D448A400AD
:101AE0000459A7460D9B11945B420D93042308985B
:101AF000184308902B78EBE73024119B1EAA147032
:101B0000181D48341B685470AB460022089D0E9384
:101B10000023290016ACE2770B9A0F930233194386
:101B2000002A00DA96E3802295432A001A430E9B8E
:101B300008921190002B00D076E37833BD491393BF
:101B40000B9B9846002B00D10CE300239846002401
:101B500000230E930F946BE23A000799099803F063
:101B600007FA002809D132AE95E7BB68002B04D0F4
:101B70003A000799099803F0FBF9079B0C989B8999
:101B80005B0601D501F05EF943B03CBC9046994636
:101B9000A246AB46F0BD1393AB46002A01D001F03C
:101BA00010FB202308990B4000D1A8E10722119BCC
:101BB00007339343013294469C4462465C681B6839
:101BC00025001C000023119216AAD3770B9B0E94BC
:101BD0000F95002B01DA00F0B9FF8023994308919B
:101BE0002100294300D1A6E1002398460722B446EC
:101BF00032AB92461C000E9A0F9B5807D6085146EE
:101C0000DD0830432B0005001140013C30312170CC
:101C100002001D43F1D10E920F93089A129466466A
:101C2000D20700D41EE2302901D101F0CDF83023D3
:101C3000129D013D2B7032AB5B1B10931295109AD5
:101C400013000B9A934200DA13000A9300231593B2
:101C50004346002B02D00A9B01330A930223089AC1
:101C60001A40924602D00A9B02330A938423089AB0
:101C70001A40914600D0FCE20D9B0A9A9C1A002C57
:101C800000DCF6E26C49BA687B688846102C1FDDE0
:101C900031001025464603E0103C0831102C15DDBC
:101CA000103201330E604D60BA607B60072BF3DDAC
:101CB0003A000799099803F05BF9002800D05CE727
:101CC000103CBA687B6832A9102CE9DCB0460E00E3
:101CD000414674600133A4183160BC607B60072BFF
:101CE00001DD00F05BFD16ABDB7F08369846C1E2F4
:101CF0006B1C98462B782A2B01D101F04BFA30202F
:101D0000404283469B44584600244546092801D951
:101D100001F0DCF990465A46A30001351C196B1EF0
:101D20001B786400A4181A00303A092AF4D94246F4
:101D3000A846002C01DA01F08FF80B944546C8E65E
:101D40005046089B034308932B78C1E63024644235
:101D5000A34600209B44904603005A469C00E3188B
:101D60005B000135D3186A1E14782200303A092A24
:101D7000F4D90D9342462300ABE61393AB46002AF9
:101D800001D001F012FA1023089A1A430892089B16
:101D90009B0601D400F049FD0723119A07329A43AC
:101DA00001339C46944463461193536812680F9321
:101DB0000E92002B01DA00F047FD16ABDB7F984650
:101DC0000B9B002B01DA00F065FD8023089A9A43F3
:101DD00008920E9A0F9B1100194301D100F053FC99
:101DE0000F9B002B01D101F031F80E9C0F9D32ABFF
:101DF000B1461E00200029000A22002303F014FE31
:101E0000013E303232700023200029000A2203F004
:101E10000BFE030004000D000B43EBD1320032AB8C
:101E20009B1A12960E940F954E46109307E7C046E4
:101E3000C47800085C7A0008287A00081393AB463F
:101E4000002A01D001F0DDF90722119B07339343EB
:101E5000013294469C44624611921A6816920122FD
:101E60005B68169D1793179B52425C006408E44B15
:101E70002800210005F0D6FB002801D000F0CDFDA0
:101E80000122DF4B52422800210003F0AFFD002861
:101E900001D000F0C2FD002200231698179903F02C
:101EA0009BFD002801D001F0AAF816ABDB7F984615
:101EB000139B472B01DD00F02DFFD24B12938023A3
:101EC000089A9A4308927D3B0A93109300230B9340
:101ED0001593BDE60820089B034308932B78F7E58C
:101EE0001393AB46002A01D001F093F91023089A0E
:101EF0001A432023089208990B4000D056E610227E
:101F000008990A4001D100F02CFE119802000068E7
:101F100004320E9000200F9016A8C3770B9B002B65
:101F200001DA00F012FE802399430E9B0891119272
:101F3000002B00D058E60B9B002B01D101F092F84A
:101F400000239846002300240E930F944EE613932B
:101F5000AB46002A01D001F058F91023089A1A4321
:101F60000892202308990B4000D171E30722119BAE
:101F700007339343013294469C4462465C681B6875
:101F800025001C000023119216AAD3770B9B0E94F8
:101F90000F95002B01DA00F07BFC80239943089118
:101FA000210029430B1E00D16CE30023984617E75C
:101FB0001393AB46002A01D001F01FF9089B924908
:101FC0009B0600D4A5E00722119B073393430132FF
:101FD00094469C4462465C681B680E930F940123F0
:101FE0001192089A134000D1A7E00E9A0F9B10009F
:101FF000184301D100F008FE30221EAB1A704C20AD
:102000006A4612181278089C5A7000220223200097
:1020100016ADEA770B9A1843002A01DA00F0EAFFBE
:1020200080222000904302001A4300239846089221
:102030000F208C46B14632AB1C000E9A0F9B01005C
:1020400065461140695C013C1E07217011091D099C
:102050000E432B00350032001D43F0D14E460E9248
:102060000F93129432AB1B1B1093E8E5119B1C1DC0
:102070001B680D93002B00DA34E52B78119427E5CB
:102080002B7801222B2123E52020089B0343089372
:102090002B781DE51393119B16A91C1D1B68AB46DD
:1020A0001A0012930023CB77002A01D100F065FFBC
:1020B0000B9B002B01DA00F08DFE1A000021129814
:1020C00002F0B4FB002801D100F0C0FF129BC31A3C
:1020D0001A001093DB43DB171A40002316A9C97FAF
:1020E0000A92884611940B931593B1E51393AB466E
:1020F000002A00D135E716ABD97732E71393AB4608
:10210000002A01D001F06AF84049089B9B0600D5DF
:1021100059E7089BDB0600D5D3E3089B5B0600D498
:10212000CFE3119B1A8804330E92002211930F9271
:102130000123089A134000D057E716A8C3770B9BDA
:10214000002B01DA00F079FD80239A4308920E9A61
:102150000F9B1000184300D088E00B9B9846002B83
:1021600000D0F2E400230B93109332AB129366E598
:102170002B786C2B01D100F0B8FD4C460898204319
:102180000890A5E4AB46002A01D001F023F8089B93
:102190009B0601D400F01FFD11990C9A0B681A6080
:1021A000D2175A600B000433119357E41393AB46D4
:1021B000002A00D1EBE516ABD977E8E5119A139325
:1021C000136828210A936B465B181B78AB4628AD31
:1021D0002B70002316A9CB7713000433119300232F
:1021E000984601330A931093002312950B9315938D
:1021F00034E52B78002900D06AE40122203167E41D
:10220000FFFFEF7F387A0008487A00085C7A000800
:1022100001230898184308902B7859E46046089BDE
:10222000034308932B7853E4002398467833D0492E
:102230001393FDE61393AB46002A01D000F0D3FFC1
:10224000139B002B00D190E428AD2B70002316AA1D
:10225000D377C5E778230891C54913930E9A0F9B4E
:1022600014001C43231E119000D16FE400239846F4
:10227000DEE6BC684346002B0FD016AA1F23944607
:1022800063443360012373607B6801340133BC60B5
:102290007B60072B00DD19E208365346002B0CD07B
:1022A0001EAB3360022373607B6802340133BC6071
:1022B0007B60072B00DD15E208364B46802B00D1F2
:1022C0005EE10B9B109A9D1A002D36DDA94A7B68B2
:1022D0009146102D26DD102221009246099C3200E5
:1022E0002E004D4603E0103E0832102E16DD5046FB
:1022F0001031013315605060B9607B60072BF2DD4F
:102300003A000799200002F033FE002800D034E4A0
:10231000103EB9687B6832AA102EE8DCA9460C0092
:10232000350016004A466419013332607560BC609E
:102330007B60072B00DDBDE10836089BDB0500D57F
:10234000B8E0129B3360109B9C4673607B686444CA
:102350000133BC607B60072B00DD9FE00836089BE3
:102360005B0743D50D9B0A9A9D1A002D3EDD824ADC
:102370007B689046102D27DD102221009146099C94
:1023800032002E00454603E0103E0832102E17DDC5
:1023900048461031013315605060B9607B60072BEF
:1023A000F2DD3A000799200002F0E2FD002801D09A
:1023B000FFF7E3FB103EB9687B6832AA102EE7DC1A
:1023C000A8460C003500160042466419013324C6A5
:1023D000BC607B60072B09DD3A000799099802F081
:1023E000C7FD002801D0FFF7C8FBBC680D9B0A9A07
:1023F000934200DA13000C9A94469C4463460C9373
:10240000002C00D01AE1002332AE7B60FFF726FBE0
:10241000149B012B00DCF2E0129B0134336001239A
:1024200073607B68BC6001337B60072B00DDC5E215
:102430000836199A01333260189A984694466444D3
:102440007260BC607B60072B00DDC4E208360022AE
:1024500000231698179903F0B9FA002800D0ACE1D0
:10246000129D149B0135013B35607360E418012314
:102470009C46E0444346BC607B60072B00DDCFE018
:10248000083621AB33601A9B9C4673604346644414
:102490000133BC607B60072B00DC5FE73A000799E3
:1024A000099802F065FD002801D0FFF766FBBC68C3
:1024B00032AE54E7139B652BAADD00220023169849
:1024C000179903F083FA002800D117E12B4B013450
:1024D0003360012373607B68BC6001337B60072B32
:1024E00000DD9EE308361F9B149A934203DB089B92
:1024F000DB0700D433E7199B3360189B9C4673605D
:102500007B6864440133BC607B60072B01DD00F015
:10251000F4FB0836149B5D1E002D00DC1FE7154AF6
:102520007B689146102D00DCC0E11022210090460E
:10253000099C32002E004D4604E00832103E102E59
:1025400000DCAFE140461031013315605060B960E6
:102550007B60072BF1DD3A000799200002F008FDAF
:10256000002801D0FFF709FBB9687B6832AAE5E7CC
:102570005C7A00087C7A0008287A0008787A0008DB
:102580000D9B0A9A9D1A002D00DC9AE6D14A7B68C1
:102590009146102D27DD102221009246099C320021
:1025A0002E004D4603E0103E0832102E17DD504637
:1025B0001031013315605060B9607B60072BF2DD8C
:1025C0003A000799200002F0D3FC002801D0FFF761
:1025D000D4FA103EB9687B6832AA102EE7DCA9460F
:1025E0000C00350016004A466419013332607560EC
:1025F000BC607B60072B00DDFBE1083661E6012350
:10260000089A134200D007E773607B68129A01337F
:1026100001343260BC6098467B60072B00DC2FE7FA
:102620003A000799099802F0A3FC002801D0FFF7AF
:10263000A4FA7B68BC68984632AE22E73A00079954
:10264000099802F095FC002800D1DCE6FFF795FA26
:10265000102208990A4000D19FE2119802000068F8
:1026600004320E9000200F9016A8C3770B9B002B0E
:1026700000DA0CE1802399430E9B08911192002B04
:1026800000D092E498460B9B002B00D16AE5002312
:1026900000240E930F9427220E9B28A930338B54CD
:1026A00016AB9C466F2532AB65445B1B10931295AD
:1026B000FFF7C5FA3A000799099802F059FC00287B
:1026C00001D0FFF75AFABC6832AE36E63A000799F5
:1026D000099802F04DFC002801D0FFF74EFABC68C3
:1026E00032AEDAE53A000799099802F041FC002879
:1026F00001D0FFF742FABC6832AEDEE51F98002831
:1027000000DC9DE2159A1499130091468B4200DD7E
:1027100089464B46002B0CDD129B4C4433604B46E4
:1027200073607B68BC6001337B60072B00DD97E33F
:1027300008364B46DB434A46DB171340159AD31A3B
:102740009846002B00DCD7E0102B01DC00F006FDE2
:10275000604A2100914610227B689246099D320012
:102760004C46464604E00832103E102E00DCB3E032
:1027700050461031013314605060B9607B60072B04
:10278000F1DD3A000799280002F0F2FB002801D0A1
:10279000FFF7F3F9B9687B6832AAE5E73A000799D1
:1027A000099802F0E5FB002801D0FFF7E6F916AB27
:1027B000DB7FBC68984632AE5CE5149B5D1E002D45
:1027C00000DC5EE6434B9946102D29DD10233200D4
:1027D0009A462E0021004346099C4D4603E0103ED8
:1027E0000832102E17DD504610310133156050604D
:1027F000B9607B60072BF2DD3A000799200002F0F8
:10280000B7FB002801D0FFF7B8F9103EB9687B6824
:1028100032AA102EE7DCA9460C00350098461600B7
:102820004B4675603360641921E6089BDB0600D4D3
:10283000EBE0119A13680A930E930432DB170F939F
:10284000119201D4FFF7B9FA0E990F9A00244B4266
:1028500094410E930F942D2316AAD3770B9B002B34
:1028600000DAACE38023089A9A43533B08929846D7
:10287000FFF7B6FA11990A00096804320E91002197
:102880000F9116A9CB770B9B002B00DB2AE211924C
:10289000002398460E9A0F9B1100194301D0FFF7B1
:1028A0009FFAF4E6A9460C00350016004A46641962
:1028B000013332607560BC607B60072B00DC4DE546
:1028C000ECE5119B1A6804330E92002211930F92CB
:1028D0002EE4C0467C7A0008B046A14616000C00E3
:1028E0004A4632604246444401337260BC607B60B9
:1028F000072B00DD35E30836129A159B9446634496
:102900009846149A1F9B934249DB089AD20746D4F3
:10291000129A149915008C4642466544CB1AAD1A9A
:102920009D4200DD1D00002D0BDD424632607A68BD
:10293000641901327560BC607A60072A00DD2FE3FC
:102940000836EA43D21715405D1B002D00DC06E572
:10295000D34A7B689146102DA8DD102221009046B5
:10296000099C32002E004D4603E00832103E102E26
:1029700098DD40461031013315605060B9607B60CE
:10298000072BF2DD3A000799200002F0F1FA002847
:1029900001D0FFF7F2F8B9687B6832AAE6E7199A26
:1029A0003260189A944672607A6864440132BC605E
:1029B0007A60072A00DDC7E20836A9E73A000799DE
:1029C000099802F0D5FA002801D0FFF7D6F8BC68C4
:1029D0007B6832AE2DE53A000799099802F0C8FAF3
:1029E000002801D0FFF7C9F87B68BC68984632AE72
:1029F0002DE53A000799099802F0BAFA002801D0AB
:102A0000FFF7BBF8BC6832AE5BE4089B119A5B062B
:102A100000D40FE70021535E0EE7169D179C2A0095
:102A200023002800210004F0FDFD002800D06EE303
:102A30000B9B013300D1E8E22023139D9D43472DDA
:102A400000D1A6E18023089A5B001A43179B1B92D2
:102A5000002B00DAEFE2169A9846002391460A937B
:102A6000139C662C00D1AEE2462C00D172E12B0003
:102A7000453B594259410B9B4A469A4623AB049326
:102A800020AB8A4403931FAB029353460193022366
:102A900009980093434600F071FC1290672C00D017
:102AA000F0E2129B53441C00089BDB0700D426E392
:102AB000002300224846414602F088FF23000028F8
:102AC00009D1239B9C4206D930215A1C23921970AC
:102AD000239B9C42F9D8129A9B1A1493472D00D13C
:102AE000A8E1139B652B00DCDEE2139B662B00D173
:102AF000E0E21F9B1593159A14998A4200DA8AE244
:102B0000089BDB0700D5F3E2D343DB171340109299
:102B1000672213920A9A002A00D07FE10A931B9B36
:102B200016AA08930023D27F0B939046FFF790F8E4
:102B300011990A00096804320E9100210F9116A91B
:102B4000CB770B9B002B00DBC8E01192002398464B
:102B50000E9A0F9B1100194301D0FFF747F8FFF7BA
:102B6000F1F9402308990B40E2D011980300008846
:102B700004330E9000200F9016A8C2770B9A002AFB
:102B800000DA11E1802291430E9A08911193002AF4
:102B900001D0FFF729F8FFF7CEF9402308990B4041
:102BA00000D167E611980300008804330E900020DE
:102BB0000F9016A8C2770B9A002A00DAF0E0802264
:102BC0001193002391430E9A08919846002A01D050
:102BD000FFF706F957E5089BDB060CD4089B5B065C
:102BE00009D56946119B098E1A6804330892118031
:102BF0001193FEF733FF119A0C99136819601300B3
:102C000004331193FEF72AFF0B9B16AAD077002BF3
:102C100001DAFEF79AFF8023089A9A430892FEF79A
:102C20008FFF3A000799099802F0A2F9002801D015
:102C3000FEF7A3FFBC6832AE55E41198FFF70EFB18
:102C4000184B01343360012373607B68BC6001332F
:102C50007B60072B71DC0836002807D1149B002B02
:102C600004D1089BDB0701D4FFF779FB199B336084
:102C7000189B191973607B68B96001337B60072B5F
:102C800000DD27E2320008324442002C00DCB5E0CF
:102C900003488146102C00DC4AE11026050008E0BC
:102CA0007C7A0008787A00080832103C102C00DC8E
:102CB0003DE11031013315605660B9607B60072B30
:102CC000F2DD3A000799099802F052F9002801D084
:102CD000FEF753FFB9687B6832AAE6E780230899BC
:102CE000FFF722F980230899C5E42020089B0135CD
:102CF000034308932B78FEF7EBFE3A0007990998F7
:102D000002F036F9002801D0FEF737FFBC6832AE7A
:102D1000FFF700FCE54B1293FFF7D1F8402109982B
:102D200001F0DAFA079B18601861002800D15EE212
:102D30004023079A5361FEF785FE3A0007990998E8
:102D400002F016F9002801D0FEF717FF1F98BC68A3
:102D500032AE81E723AB049320AB03931FAB029306
:102D600003230B9C009301944A464346099800F0C4
:102D700005FBA2461290129B53441C00139B462B4A
:102D800000D095E6129B1B78302B0FD01F9BE418C8
:102D90008EE60B9B002B00D054E601330B9351E6DB
:102DA00011930023984675E51193CFE60022002386
:102DB0004846414602F00AFE0028E7D10123524668
:102DC0009B1A1F93E41873E6129A32AB9B1A109366
:102DD000FEF735FF1298FEF7E5FD020010900300A4
:102DE000FFF778F93A000799099802F0C1F800282E
:102DF00001D0FEF7C2FEB9687B6832AA129801338F
:102E0000106014987B6044185060BC60072B01DD93
:102E1000FFF744FB08321600FFF7A1FA0A931B9B49
:102E20002D2208932D239846002316A9CA770B93C9
:102E3000FEF711FF1F9CE31C1EDB0B9BA3421BDB59
:102E4000159458E601204042FEF79EFE0E9B092B8A
:102E500001D9FEF7CAFF1EE401246442FEF76DFFAC
:102E60003A000799099802F083F8002801D0FEF78C
:102E700084FEBC6832AE5CE4139B023B13936B464A
:102E80004C229B181B78013C21AD1F942B70002C09
:102E900000DA5AE12B236B70092C00DC31E116AA11
:102EA0003B2394466344B0469A461E0020000A2104
:102EB00002F078FD013E3031317020000A2102F02D
:102EC0008BFC04000928F1DC330030345A1EE4B2D4
:102ED000464614709846524500D376E14146791A29
:102EE0002B00691800E014789C700133013299427C
:102EF000F9D116A98C462E22434662449446FB1A09
:102F0000634414995B1B0A009C4662441A93109216
:102F1000012900DC27E1189A109B944663441A00AB
:102F20001093DB43DB17134000221592F2E5A9460C
:102F300048460919013310605460B9607B60072B63
:102F400000DD4FE7083259E73A000799099802F087
:102F50000FF8002801D0FEF710FE1F9BBC6832AEB0
:102F6000D6E43A000799099802F002F8002801D047
:102F7000FEF703FEBC6832AEBEE40B9B062B00D905
:102F800006231A001093DB43DB171A4000239846F0
:102F90000B931593464B0A9211941293FEF75EFE23
:102FA0003A000799099801F0E3FF002801D0FEF7E5
:102FB000E4FD149B1F9ABC689B1A32AEC1E42D231A
:102FC0009846FEF70DFF23AB049320AB03931FAB92
:102FD000029303230B9C009301944A4643460998AD
:102FE00000F0CCF9A44601002200614412900C00CC
:102FF0009246C7E6002308909846FFF719F82D235C
:1030000016AAD3779846FEF753FF2023139D9D43BE
:103010001A3B0B9316E5189A149B9446159A634431
:103020001093002A00DC94E01A00DB43DB17134006
:10303000672213926EE5802212069446169B9946EB
:10304000179B634498462D230A9309E516ABDB7F53
:10305000119498460B9B0A93109300230B9315939E
:10306000FEF7F6FD9846089BDB0705D530212723A0
:1030700028AAD154FFF714FB0023109332AB12930C
:10308000FEF7DDFD129B53441C00139B472B00D021
:103090000EE5089BDB0700D56DE6239B129A9B1A71
:1030A0001493472D00D1C5E61F9CE8E63C7A000842
:1030B000707A00081F9B1593002B5EDD0B9A002A87
:1030C00034D1089AD20731D4109323E500200B9015
:1030D000FEF7FFFC3A000799099801F049FF002824
:1030E00001D0FEF74AFD1F98B9687B6832AACBE58C
:1030F000189A159B944663441A00109395E7239BF6
:10310000E9E430233034AB70EC7022ABF9E6139B6A
:10311000472B2FDC414B12938023089A9A4316AB1E
:10312000DB7F089298460323FEF7CEFE189A159B84
:103130009446634418000B9B9C468444634610935A
:10314000DB436246DB171340E4E42D2364426B70DB
:10315000A2E6109B159A981A431CCDE7304A7B686B
:103160009146FFF7BDFB089BDB0700D5D3E6109A1D
:103170001300D6E62B4B1293CEE70B9B002B02D10C
:10318000089BDB0702D5189B581CD4E701220123BA
:103190001092BFE4119B1C1D1B680B93002B08DBD6
:1031A0006B7811944546FEF793FC16ABD977FEF782
:1031B000EAFD012040426B78119445460B90FEF7E2
:1031C00087FC16ABD977FEF7ECFC16AA2E239446A3
:1031D000634496E616ABD977FEF7D9FF16ABD977DD
:1031E0001149FEF792FF16ABD977FFF729F80C23A8
:1031F000099A01381360FEF7C7FC16ABD977FEF7C2
:10320000DDFE16ABD977FEF71FFE16ABD977FEF7BA
:10321000A4FE16ABD977FEF769FEC046407A0008D7
:103220007C7A0008447A00085C7A0008F0B54446CD
:1032300080465F4656464D464246F0B412690C69D8
:1032400085B00B0003910020944200DD8EE0142233
:103250009446634499464A46013CA300D61814227A
:10326000424493469B4433681500591C5B461868DA
:103270000292FEF735FA031E019040D00027290084
:10328000B4461E002300CA463C0000204F460D00F5
:10329000994602CF0A04120C7243090C71431219A9
:1032A000130CC9182B6812041B041B0C1B18120CDE
:1032B0009B1A2A680C0C0904120C090C1814511AD8
:1032C00009181B0408141B0C09040B4308C5BC4552
:1032D000DFD25B461B684C466646D146002B0ED1BA
:1032E0005B46029A043B9A4204D306E0043B013C4D
:1032F0009A4202D219680029F8D043461C6103990A
:10330000404601F019FD00282FDB4F460020019BAD
:10331000029D01330193296804CF0B041B0C18187C
:1033200013041B0CC31A090C120C8A1A1914521814
:103330001B0410141B0C12041A4304C5BE42EAD22B
:103340000299A3008C4663441A68002A0DD1043BFD
:103350000A00994204D306E0043B013C9A4202D29F
:1033600019680029F8D043461C61019805B03CBC9F
:1033700090469946A246AB46F0BDC046F0B55F46C2
:1033800056464D464446F0B414001D00016C99B0F9
:103390008346259E02940395002909D00123426C9F
:1033A00093404A608B6001F0B5FA00235A461364DB
:1033B000039F002F34DB002333603A00D34B1A40C5
:1033C0009A421AD0029C039D00220023200029006B
:1033D00002F0FCFA002829D00123249A1360269BCE
:1033E000002B00D12EE2CA481860013819B03CBC4D
:1033F00090469946A246AB46F0BDC64B249A136050
:10340000029B002B00D1FDE1C348269B002BEDD091
:10341000C278C31C002A00D00533269A1360E5E762
:1034200001236800470833600397C6E716AB019392
:1034300017AB009322002B00584601F029FD3E0DEA
:103440000A9000D1E3E12B03B44A1B0B1A43B44B9F
:1034500020009C46169B1100984600236644129358
:103460000022B04B03F08AFDAF4AB04B03F00CFBD7
:10347000AF4AB04B02F0B8FB040030000D0004F07E
:1034800027F9AD4AAD4B03F0FFFA02000B00200014
:10349000290002F0A9FB04000D0004F0E3F800226B
:1034A000059000232000290002F096FA002800D0A1
:1034B000B6E20123059C0D93162C10D8A049E30019
:1034C000C91808684968029A039B02F099FA002813
:1034D00000D1AAE32300013B059300230D9343464B
:1034E0009E1B00230693013EB24600D5A7E2059B32
:1034F000002B00DA8BE29C460E930023E2440B93F0
:10350000229B092B00D99FE10124052B02DD002419
:10351000043B2293229B032B01D100F0D8FC01DC59
:1035200000F09DFC229B042B00D1A4E301230C930B
:10353000229B052B01D000F098FC239A059B944612
:1035400063440F93013308931D1E01DC00F066FCF9
:10355000089D2E0000235A4600215364172E0AD9D5
:10356000012204335B00180014301100013286423E
:10357000F8D25B465964584601F0A4F95B460990BD
:1035800018640E2D00D972E1002C00D16FE1029B6E
:10359000039C059E10931194002E01DC00F031FD78
:1035A00031000F221140CB0065493611CB181C6841
:1035B0005D68F10601D400F0DAFC10981199614BB6
:1035C00016401A6A5B6A02F03BFE0323984602909B
:1035D0000391002E14D0012399465A4F4B46334293
:1035E0000AD001239C463A687B6820002900E04409
:1035F00003F04AFA04000D0076100837002EEDD1D2
:103600002200029803992B0002F01AFE06000F0018
:103610000D9B002B09D00022404B3000390002F0F6
:10362000DBF9002801D000F0C7FD404604F050F857
:1036300032003B0003F028FA0022434B02F0D4FA98
:10364000424A0B0094466344029003910393089B03
:10365000002B01D100F05CFC059B1493089B139395
:103660000C9B002B01D100F01AFD139B344A013B47
:10367000DB00D3181A685B680020354902F0E0FDD2
:10368000029A039B03F07AFC029003913900300008
:1036900003F0E8FF050004F01BF802000B00300007
:1036A000390003F06BFC06000F00099A3035E9B2CF
:1036B0001170541C88460298039932003B0002F0B6
:1036C0009FF9002800D08AE032003B000020134917
:1036D00003F054FC02000B000298039902F090F9E9
:1036E000002801D000F0D8FD139B012B01DC00F075
:1036F00083FC099A139B944663449946534613935B
:103700005B46A246029C039D029335E00000F07FD9
:10371000797A00080F270000987A00080000F03F2F
:1037200001FCFFFF0000F83F61436F63A787D23FB2
:10373000B3C8608B288AC63FFB799F501344D33FA0
:10374000B07A0008787B000800001C400000C0FC34
:103750000000E03F32003B000020BC4903F00EFCBB
:1037600022002B0002F038F9002801D000F06CFD97
:10377000CA4501D100F03CFC0022B54B20002900D5
:1037800003F082F90022B24B04000D003000390032
:1037900003F07AF90F00060003F064FF804603F09F
:1037A00097FF02000B003000390003F0E7FB012314
:1037B0009C4643463033DBB2984601234246E244FE
:1037C0005B4253441A709B4622002B0006000F00F8
:1037D00002F002F90028BDD0029B54469B46149B80
:1037E00005930A99584601F095F800232370059B2C
:1037F000249A01331360269B002B00D1AAE31C609E
:103800000998F3E5380300D0FEE59248FDE5169BE4
:103810009846179B43441E008F4BF318202B00DC67
:10382000FEE18E4A0299B218D14040223800D31AE4
:103830009840084303F08EFF0123894C013E09198B
:1038400012930DE68748D1E500235A4600215364C0
:10385000584601F037F85B46186401235B42089331
:103860000F93002323932293013309900C93179B0A
:10387000002B00DAABE0059A0E2A00DDA7E0D300AA
:10388000794AD3185C681B6806930794239B002B26
:1038900000DAFBE1069E079F029C039D32003B007D
:1038A0002000290002F0CCFC03F0DCFE804603F08F
:1038B0000FFF32003B0003F0E7F802000B0020008E
:1038C000290003F05BFB4346099A30331370089BD1
:1038D00006000F00541C012B4AD000225C4B03F061
:1038E000D3F80022002306000F0002F06FF8002832
:1038F00000D076E7099B089A9C469D1C5B46624473
:10390000AA46069C079D914602930FE00022504B69
:1039100003F0BAF801239C460022002306000F00A2
:10392000E24402F053F8002800D0DBE222002B0032
:103930003000390002F084FC03F094FE804603F06E
:10394000C7FE22002B0003F09FF802000B0030009E
:10395000390003F013FB53464246013B3032060068
:103960000F00D3461A70D145D0D1029B54469B46D6
:1039700032003B003000390002F036F906000F003B
:1039800002000B000698079902F026F800280CD1D7
:103990000698079932003B0002F018F8002800D181
:1039A0001FE74346DB0700D41BE7651E2B78099A07
:1039B00006E0954200D153E3023C23782C00013D00
:1039C000392BF6D09846434601332B7009E70C9A01
:1039D000002A4BD0229A012A00DC79E1089B0B9A3D
:1039E0005D1EAA4200DAB8E2551B089B002B00DAE4
:1039F000C5E3069C089B069A012194469C446246B6
:103A0000584606929A4401F021F8070031E0069AE0
:103A1000059BD21A5B420B93002306920E936FE52F
:103A2000059F380003F054FE0B000200290020001F
:103A300001F0CCFF43424341FB1A059339E553465D
:103A40005B42069300239A4651E5C0460000F03FD2
:103A5000000024408C7A00083204000012040000A8
:103A6000000010FE787A0008B07A000800270B9D4D
:103A7000069C002C0DD05346002B0ADD2300544534
:103A800000DDD5E0069AE41AD21A06925246D31AFD
:103A90009A460B9B002B00DCF9E10C9A002A00D11E
:103AA000C9E0002D00D1C6E039002A00584601F0D7
:103AB00085F80A9B01001A0007005846984600F056
:103AC000CFFF41460600584600F024FF0B9B5B1BCE
:103AD0000B9300D0AEE00121584600F0B7FF0E9BDB
:103AE0008146002B00D1FFE01A000100584601F08A
:103AF00065F8229B8146012B00DCA3E000254B46A4
:103B00001B6903339B004B44586800F053FF20238C
:103B1000181A1F235044184000D1E3E001331B1A48
:103B2000042B00DCBFE31C23181A069B24189C46B8
:103B30008444634682440693069B002B05DD3100D6
:103B40001A00584601F098F806005346002B05DD90
:103B500049465246584601F08FF881460D9B002B8E
:103B600000D061E1089B002B00DC92E10C9B002B54
:103B700000D0D0E04B46099AB9460024089D9046F3
:103B80001F0006E0310000230A22584600F0CCFE58
:103B9000060039003000FFF749FB43463030185526
:103BA0000134AC42EEDB3B004F4699460290089C44
:103BB000002C00DCE8E2099B9C4600239846644404
:103BC00031000122584601F057F849460A9001F0A9
:103BD000B3F8002800DCFFE1651E2B78099A06E0A7
:103BE000954200D177E1023C23782C00013D392B2E
:103BF000F6D001332B704946584600F08BFE002F5B
:103C000000D1EEE54346002B05D0B84503D0414630
:103C1000584600F07FFE3900584600F07BFEE0E594
:103C200020220298D31A984004E600230D9356E40C
:103C3000534627E70A960B9A0A99584600F0BEFFAA
:103C4000060048E7029B002B00D057E70299039A31
:103C50000025130309D1DB4B134206D0069B013527
:103C60000133069301239C46E2440E9B0120002B66
:103C700000D14EE743E701230C93239B002B00DC8C
:103C8000C7E01E001D000F93089363E4089B002B00
:103C900000DDFFE500D059E1069807990022CA4BE4
:103CA00002F0F2FE029A039B01F0B4FE002300270B
:103CB0009946002800D102E1239B099CDB43059330
:103CC0004946584600F026FE002F00D189E5A2E7BC
:103CD000129A002A00D159E2BC4A0B9D9446069CD8
:103CE000634488E61C2020E7229B012B00DCB5E220
:103CF000002501200DE7002339000A22584600F074
:103D000013FE0F9B0700002B04DC229B022B00DD1F
:103D1000CFE20F9B0893002C05DD390022005846A6
:103D200000F0AAFF0700BA46002D00D09FE1089CD2
:103D3000099A013C9446230063440A930123150029
:103D4000029AD8461A404B46A94608920693069D09
:103D500030002900FFF76AFA03000B903033390076
:103D60003000029300F0E8FF29000400524640466C
:103D700001F000F8C3680500002B47D101003000B6
:103D800000F0DAFF83462900404600F0C3FD5B46A1
:103D9000229A134303D1089B002B00D149E2002C47
:103DA00000DAECE0229B1C4303D1089B002B00D1DE
:103DB000E5E05B46002B00DDCCE16A464B46127A1B
:103DC0005D1C1A700A9B2C00994500D1D1E131008D
:103DD00000230A22404600F0A7FD002306000A2225
:103DE0003900404657450BD000F09EFD5146070074
:103DF00000230A22404600F097FDA9468246A6E726
:103E000000F092FDA94607008246A0E701239B46E9
:103E1000B9E7012301250F930893239300235A4602
:103E200000215364FFF7A7FB4946300000F084FFF0
:103E3000002800DB96E6059B3100013B05930A2232
:103E40000023584600F070FD0C9B0600002B00D0AC
:103E500051E70F9B002B00DC0DE208938AE600235C
:103E60000C93229B022B00D107E700245B46210024
:103E70005C64584600F026FD5B46186401235B42F3
:103E800008930F930233099023940C93EFE40A9E56
:103E900021E6229B022B00DC68E6089B002B00D069
:103EA00088E149460522584600F03EFD0100814662
:103EB000300000F041FF0A96002800DCFCE63123C8
:103EC000099A1370059B541C01330593F8E60023EF
:103ED0000C93FFF732FB059B099A013305933123BD
:103EE000137088E6029B5C469B467AE4404603F0EA
:103EF000EFFB32003B0002F0C7FD0022344B01F023
:103F000073FE344A0B00944663440290039103937A
:103F100000222D4B3000390003F030F8029E039F41
:103F200032003B0004000D0001F06AFD002800D0C3
:103F3000B1E0802000068446390061440B00320065
:103F40002000290001F048FD002855D0002300275B
:103F50009946B1E60998FFF749FA0E9A0B9B9446E9
:103F6000EB1A9C4463460B950E9300253DE5109A91
:103F7000119B0292039302239846FFF72AFB5B46AC
:103F8000069A4D46C3469146002B12DD31000122B0
:103F9000404600F071FE4946060000F0CDFE0028C4
:103FA00000DC60E1029B392B00D1FBE00B9B31333D
:103FB00002936B461B7AB8466C1C2B7057460A96C8
:103FC00019E6C0460000F07F0000144033040000F2
:103FD00000001C400000C0FC002804D1029BDB074D
:103FE00001D5F9E51C00631E1A78302AFAD002E6E2
:103FF000139B9A46029B9B46109B119C0293039431
:1040000035E4059B5C42002C00D1C5E01098119965
:104010000F23A94A2340DB00D3181A685B6802F01B
:1040200033FD241106000F00002C00D130E10223E3
:104030009846013B9946A14D4B4623420AD00123A5
:104040009C462A686B6830003900E04402F01CFD91
:1040500006000F0064100835002CEDD1FFF7D8FAE8
:10406000059B0133059330232B709846ABE47968A8
:10407000584600F027FC390004003B690C319A1CBB
:1040800092000C30FDF7B8FB01222100584600F0E9
:10409000F3FD82464BE60023002799460FE7139B6A
:1040A000591ECB0015918449C91808684968029ABD
:1040B000039B02F0E9FC029003913900300003F009
:1040C000D1FA050003F004FB02000B0030003900B8
:1040D00002F054FF139B0F0009991A008C463035EB
:1040E000624406004C1C0D709146012B1ED0A04668
:1040F0000022734B3000390002F0C6FC0F000600AE
:1041000003F0B0FA050003F0E3FA02000B00300000
:10411000390002F033FF30352570013406000F00FE
:104120004C45E5D1159B44469C46644400220298C8
:104130000399644B01F058FD32003B0001F04CFC48
:10414000002862D0651E2B78099A9846149B059327
:10415000434635E4069B4D469946029BC346392BA0
:1041600020D0029BB84601336C1C2B7057460A9630
:1041700041E5069BC3469946B846574620E5069B4F
:10418000089A9C1A002336E4012414E53623169A73
:104190000B9D9B1A069C2EE40223109E119F9846AD
:1041A000FFF736FA3923B8466C1C2B7057460A962F
:1041B000099A1CE50A967FE5089B002B00D195E63D
:1041C0000F9C002C00DC17E7059B0022013B149399
:1041D00030003B4B390002F057FC060040460F0010
:1041E000013003F075FA32003B0002F04DFC002272
:1041F000354B01F0F9FC354A0B00944663440290BC
:10420000039113940393FFF72BFA029A039B002068
:104210002C4902F0B3FE32003B0001F0F1FB002814
:1042200001D1E9E61C00631E1A78302AFAD0FFF7A4
:10423000D6FA069B4D469946029BC346392BB1D010
:10424000002C00DDB2E6B4E6029B5D469B46149B63
:1042500054460593099A4346FFF7B2FB029B002B95
:1042600000D045E5F2E4002800D0A2E6029BDB077F
:1042700000D49EE696E6229B022B1ADC4946FEF706
:10428000D5FF099B303018700F9B029008938EE485
:1042900002239846FFF7BCF9149B099A0593150071
:1042A0004346FFF78DFB042B00D145E43C23181A4D
:1042B0003BE40F9B0893F0E5B07A0008787B000898
:1042C000000024400000E03F00001C400000C0FC53
:1042D0000048704744040020F0B55F464D465646FE
:1042E0004446F0B40D000B3583B00700162D00D8FE
:1042F000A8E007239D4300D5CEE0A94200D9CBE03A
:1043000000F0DCFAF823FF339D4200D884E26B0A08
:1043100000D1C5E0042B00D96CE13823A9099C46E3
:1043200001339846884443468C445900C94E89005D
:1043300071180839CC68A14217D0032362689A43E8
:104340001300521B0F2A00DDB0E00320002A09DB16
:104350008DE0636883435A1B0F2A00DDA6E0002A24
:1043600000DB84E0E468A142F3D1434600933200CD
:1043700034690832944200D18FE103236168994384
:104380000B00481B0F2800DD76E1726132610028C6
:1043900071DAB14A914200D934E10123C808821090
:1043A000934072681A43C3009B1998687260E36077
:1043B000A0609C601300C460012000998A109040A6
:1043C000984200D975E003420CD1032291430A1DA3
:1043D00040000092034205D1009A4000043200924E
:1043E0000342F9D003239846009AD3009946B1447A
:1043F000CC4692466346DC68A44507D14FE1002ACB
:1044000000DB5FE1E468A44500D148E1424663680F
:1044100093435A1B0F2AF2DD012163190D43656096
:10442000E068A5680836E86011438560F360B36012
:104430003800DE609E6059609A5000F041FA20001A
:10444000083022E0102927D8380000F037FA10256C
:10445000062302217F4E9B00F3181A005C68083A7D
:10446000944200D127E1032362689A431300E26873
:10447000A168CA6091600122E318596838000A43B4
:104480005A6000F01DFA2000083003B03CBC904692
:104490009946A246AB46F0BD0C2300203B60F4E7F2
:1044A00040239846013B80219C463FE763460093AA
:1044B0005DE70323B46862689A439046AA4203D337
:1044C000521B0F2A00DD87E023004344634A019317
:1044D000634B93461B681268EB18013200D157E119
:1044E000604A944663441B0B1B03009300993800F9
:1044F00000F02CFD03008146013361D0019B834213
:1045000000D9FDE0584B009A9A461B689C465346DA
:1045100062441A60019B11004B4500D143E15B46A8
:104520001B68013300D14FE14B46019A9B1A591881
:104530005346196007234A46134000D117E108216A
:1045400089464A49D21A9144C91A009B38004B4403
:104550001B051B0DCB1A19009B4600F0F7FC431CF2
:1045600000D135E14B46C01A012358441843534645
:104570001B685B441900534619604B46B360586092
:10458000B44213D043460F2B00D8E1E04346072244
:1045900060680C3B9343063A024005201A43626070
:1045A000E218506090600F2B00D915E1304B1A686B
:1045B000914200D919602F4B1A68914200D91960B5
:1045C0000323B46862689A431300521B9D4200D9CA
:1045D000C1E00F2A00DCBEE0012329006519194360
:1045E000134361603800B5606B6000F069F920002A
:1045F00008304AE7142B74D9542B00D9B0E0290BAA
:104600006E238CE64A0A042A74D9142A00D9C2E01F
:1046100010005C325B305200082149428C46920007
:10462000B2189444624692680B318846944500D192
:10463000A0E0414650688843834202D29268944584
:10464000F7D1D3689C4673686146A260E1608C60D4
:10465000D460B1E67C040020FF010000880800203F
:104660009C0800200F100000A00800200810000087
:104670009808002094080020012163190D4301438C
:10468000656073613361DA609A6059601850380070
:1046900000F016F920000830F7E673688CE608236E
:1046A0009B46073BDC449B46DA4443465246134252
:1046B00000D09FE633E0DC688A1C0092A34200D160
:1046C00055E6D0E60122E318596838000A435A60DB
:1046D000E368A268D3609A6000F0F2F82000083026
:1046E000D3E65B2294460132904698449C4443466C
:1046F00059001BE68A0910003932383052008BE726
:10470000B44200D05CE7FDE6009B013B0093082328
:104710005B429C46E1444B469B6899457AD14346AF
:10472000009A1342F0D1736883437360400098424B
:1047300000D9BEE6002800D1BBE6034270D1524644
:104740000092009A4000043200920342F9D04BE6F6
:1047500001234A465360380000F0B2F8002094E686
:10476000AA22520093420DD8E90B7723D7E5802186
:104770004901EAE6012380108340726813437360A5
:10478000624661E7284A934218D8A90C7C23C6E503
:1047900010330093AAE6542A26D80A0B10006F3271
:1047A0006E30520038E71B0500D0B8E6009BB268B7
:1047B00043441800012303435360F7E67F239846E0
:1047C000013BFE219C46B1E55B464A461A60B1E6D4
:1047D000002301209B46CAE621003800083100F082
:1047E000DFFC53461968E1E6AA204000824205D862
:1047F000CA0B10007832773052000DE70A48824227
:1048000005D88A0C10007D327C30520004E7FE226D
:104810007E2001E7736889E7E9084B1C5B0019E615
:1048200053460093E0E5C0465405000070B5CDB294
:1048300083073CD0531E002A1FD00278AA421DD005
:10484000032405E0002B18D00278013BAA4215D0C2
:1048500001302042F6D1032B11D8002B0DD0027865
:10486000AA420BD0421CC01804E00132511E097844
:10487000A9421AD013009042F7D1002070BDFF2248
:104880000C0212022240FF24214011430C04094E65
:104890000C43026808496240511891433142DED10D
:1048A000043B0430032BF4D8D7E71800E6E71300E5
:1048B000D1E7C04680808080FFFEFEFE7047C04684
:1048C0007047C046C36C70B504000D00002B0AD0C1
:1048D000AA009B18186800280ED002681A600023EE
:1048E0000361C36070BD2122042100F0D9FBE064A4
:1048F000031EEDD10020F5E70126AE40721D9200A7
:104900000121200000F0CCFB0028F3D04560866038
:10491000E5E7C046002906D04B68C26C9B00D3185F
:104920001A680A6019607047F8B54F464646C0B429
:104930000F0081460E001C0000200D6914373968F5
:1049400001300B041B0C5343090C51431B191C0C65
:1049500009191B040C0C1B0C0904CB1808C7854251
:10496000EDDC002C08D0B3689D420ADA2B1D9B00B9
:10497000F31801355C60356130000CBC90469946F7
:10498000F8BD73684846591CFFF79CFF3100336936
:1049900080469A1C92000C310C30FCF72DFF4A46E1
:1049A0007368D26C9B00D3181A6832601E6046464A
:1049B000DCE7C0460300010C0022002901D10304FA
:1049C0001032190E01D108321B02190F01D1043225
:1049D0001B01990F01D102329B00002B05DB202027
:1049E0005B0000D47047501CFCE71000FAE7C0469B
:1049F000036801005A0708D00020DA0704D49A0798
:104A000020D402209B080B60704718040022002865
:104A100001D11B0C1032FF20184201D108321B0AB1
:104A2000180701D104321B09980701D102329B08F3
:104A3000D80704D45B082020002BE5D001320B609E
:104A40001000E1E75B080B600130DDE710B50C00FA
:104A50000121FFF737FF01234461036110BDC04608
:104A6000F0B55F4656464D464446F0B40E691469AB
:104A700085B00F001500A64204DA330017002600A7
:104A80000D001C0033199846BB687968984500DD15
:104A90000131FFF717FF14220300944663449B463D
:104AA00043469B005B441900029303905B4600223F
:104AB0008B4503D2029904C39942FCD81423A40065
:104AC0009A4614372300BC46AA44B60053440097C4
:104AD000B44401939A4553D253461B681E04360CC6
:104AE00021D05C4600276146009D04CD20001304C0
:104AF0001B0C7343994623681B041B0C4B44DB19A6
:104B0000170C77432268120CBA181F0CD2191B0419
:104B1000170C1B0C1204134308C4A942E5D85346D2
:104B20008C4647601B681E0C23D05B4600221B6826
:104B300058461D0011006746009C22882D0C7243C8
:104B400055196A181B0411041B0C0B43036008CC95
:104B500045681B0C73432904090C5918130CCB1816
:104B60008446190C0430A742E7D83A0067469446B9
:104B70007B6004239946019BCA44CB445345ABD880
:104B80004346002B0EDD029B043B1A68002A09D124
:104B9000424603E0043B1968002902D1013A002A89
:104BA000F8D19046039B424618001A6105B03CBC00
:104BB00090469946A246AB46F0BDC046F8B546467B
:104BC0004F460323C0B480460E001400134037D173
:104BD000A41024D043469D6C002D3AD00023012719
:104BE0009946274207D1641019D0286800281BD0A5
:104BF00005002742F7D02A0031004046FFF730FF7A
:104C0000002E1BD04246D26C736894469B006344CE
:104C10001A68641032601E600600002CE5D1300076
:104C20000CBC90469946F8BD2A0029004046FFF783
:104C300017FF4B46286003600500DAE70600D2E75D
:104C40000B4A013B9B009A580023FFF76DFE0600BC
:104C5000BEE701214046FFF735FE064B05004361E4
:104C6000012303614346986400230360B6E7C0460E
:104C7000A07B000871020000F0B54D4644465F4637
:104C80005646F0B40E00336957119946B9444B4665
:104C90005D1CB36883B08046140049689D4203DD03
:104CA00001315B009D42FBDC4046FFF70BFE030039
:104CB00082461433002F06DDB9001A005B1800216C
:104CC00002C29342FCD131001F203269143192009C
:104CD0008A18204026D02024241AA44600240F68D5
:104CE000019387403C43674610C310C9FC408A4289
:104CF000F5D8019B5C60002C01D04D46023553462F
:104D000042465046013D1D617368D26C9B00D3182A
:104D10001A6832601E6003B03CBC90469946A246B9
:104D2000AB46F0BD01C901C38A42E8D901C901C33C
:104D30008A42F7D8E3E7C04602690B6910B5D21A78
:104D40000400101E12D120009A0014301431831870
:104D5000891801E098420AD2043B04391A680C68A9
:104D6000A242F7D0A24292410120104310BD002080
:104D7000FCE7C046F8B54F46464614000B69126979
:104D8000C0B49B1A0F00002B19D10D0014218C46C2
:104D900092001435A444AB18624401E09D4266D2EF
:104DA000043B043A1E6811688E42F7D067D22E0089
:104DB00065463B0027001C000123994607E0002BB5
:104DC00061DB002326000D009946143614357968FE
:104DD000FFF778FD4A4680462169C260386989003C
:104DE00083009C46894647460024AC44B1441437AE
:104DF00008CD02CE1A04120C14190A04120CA21ABD
:104E00001C0C0B0CE31A14141B191204120C1C14A6
:104E100004371B0413433A1F1360B145E8D8AC456F
:104E20001CD93E002A0008CA1904090C09190C14DF
:104E30001B0C1B1909041C14090C1B040B4308C68A
:104E40009445F0D8ED436544AD080135AD007F19B8
:104E50003A1F002B04D1043A13680138002BFAD012
:104E60004346186140460CBC90469946F8BD002167
:104E7000FFF728FD0123036100234361F3E70023CB
:104E800066469946A3E73E0025001436143590E7A0
:104E9000F0B501211C0083B0089F1500FFF712FD3B
:104EA000210364000600090B640D02D080235B031C
:104EB00019430191002D1AD068460095FFF798FD1F
:104EC000002831D1009B019D7361B5616B426B413C
:104ED0000225ED1A3561002C14D0194B9C46352360
:104EE00064442418181A099B3C60186019E001A852
:104EF000FFF77EFD019B20307361012301253361A3
:104F0000002CEAD10F4B9C460F4B6044EB189B00E2
:104F1000F31838605869FFF74DFD6D01099B281A99
:104F20001860300003B0F0BD019D20232A001B1A39
:104F30009A401300C540009A019513437361C4E77A
:104F4000CDFBFFFFCEFBFFFFFFFFFF3F002370B550
:104F5000064C050008002360FCF7F4F8431C00D061
:104F600070BD2368002BFBD02B60F9E7F809002007
:104F7000F0B556465F464D464446F0B4936883B05C
:104F800001900E009246002B78D0136800249946B9
:104F9000002308689B464F468B68002C49D01D00B3
:104FA00098469C424FD39023B289DB001A422FD0FF
:104FB0003169431A994673695800C318D80FC3184A
:104FC0005B109846631C4B444046434501D99846C4
:104FD00018008023DB001A4238D001000198FFF747
:104FE0007BF9051E55D04A463169FCF705FCB289AC
:104FF0002A4B134080221343B381434628004A467C
:105000003561A0462500484473619B1A3060B36047
:105010004246594600F0A6F93268B368424432600D
:105020001000524692685B1B141B5246B36094609A
:1050300024D03A687C6893460837002CF9D01D00CC
:1050400098469C42AFD22500A046E1E702000198B5
:1050500000F0D4F9051ED0D1019C3169200000F088
:105060009FF80C2323604023B28901201343B381AE
:105070005246002340429360536003E000235246AF
:105080000020536003B03CBC90469946A246AB4614
:10509000F0BD0C23019A1360E5E7C0467FFBFFFFDC
:1050A00010B55143FFF718F9041E26D00300083B42
:1050B0005A6803239A43043A242A16D80300132A71
:1050C0000DD900210833016041601B2A07D9816096
:1050D000C160242A0ED1030001611833416100220E
:1050E00020001A605A609A6010BD0021FCF7C2FBD4
:1050F0002000F9E703001033F1E70020F4E7C04691
:10510000F8B50C000600FFF7D9FB204FBB685D68BF
:1051100003239D431E4B2C1B9C466444240B1D4BB8
:10512000013C24039C4207DD00213000FFF70EFF05
:10513000BB685B19984204D03000FFF7C1FB002028
:10514000F8BD61423000FFF701FF431C0DD0012381
:105150002D1BBA681D43104B55601A683000141B94
:105160001C60FFF7ADFB0120EAE700213000FFF7EC
:10517000EDFEBB68C21A0F2ADEDD08490968401A35
:105180000549086001210A435A60D5E77C040020E4
:10519000EF0F0000FF0F0000A0080020880800208B
:1051A000F0B54746050080B40C1E3ED0FFF786FBE5
:1051B00001232100984608394E68424633000320F7
:1051C0009343CC186268824360488768BC425AD0D7
:1051D0004746626037420BD10827BC460E688444BC
:1051E000891B9B198E68664566D0CF68F760BE60E4
:1051F0000126A7187F68374236D0554A1E434E60B5
:10520000CB50934214D8DB08FF3A9C10FF3AA240DF
:105210004468DB002243426018188368C8608B60D2
:105220008160D9602800FFF74BFB04BC9046F0BDBD
:105230005A0A042A4FD89C092600393438366400AB
:10524000A4000419083CA268032794424AD050687D
:10525000B843834202D292689442F8D1D468CC60B9
:105260008A60A160D160DDE79B183A4FA268BA421C
:1052700040D0E4681E43D460A260354A4E60CB50F3
:105280009342D5D8BFE79B184246324206D10A68FE
:10529000891A8C689B18CA68E260946001242E4ABF
:1052A0001C4312684C6081609342BBD32B4B280097
:1052B0001968FFF725FFB5E74646A0184068304259
:1052C0003ED1A068D318E268C260906042461A439B
:1052D0004A60CB50A6E7142A14D816005C325B361D
:1052E0005400ADE70123B610B34042681343436056
:1052F0002200B4E71E43D1609160CA608A604E60AC
:10530000CB508FE7542A05D81C0B26006F346E361D
:10531000640095E7AA246400A24205D8DC0B2600AD
:105320007834773664008BE70D4CA24205D89C0C8C
:1053300026007D347C36640082E7FE247E267FE7EB
:1053400042461A434A60CB506CE7C0467C040020BA
:10535000FF01000084040020840800209C08002035
:105360005405000070B588420BD98B18984208D2BA
:10537000991A531E002A03D0CA5CC254013BFBD2C7
:1053800070BD0F2A09D80500002AF9D00023CC5C93
:10539000EC5401339A42FAD1F2E70C0004430B00BB
:1053A000A40726D115000400103D2D0901352D015B
:1053B00049191E6826605E6866609E68A660DE68A1
:1053C0001033E66010349942F3D10F24451914408C
:1053D000032C10D90023043CA4080134A400CE58A7
:1053E000EE5004339C42FAD103232D1909191A40B7
:1053F000CAE70500CAE72200C6E7C046F0B5564630
:105400004D4644465F46F0B4804685B00E1E914638
:1054100000D1CBE03700083FFFF750FA7A684D46DD
:10542000032314000B35BA469C43162D4AD810238B
:105430001025A9454AD89C427BDAD3493819896896
:105440000190884200D1ECE0406801000290012008
:105450000390080001218843019984468B46DC446F
:10546000614601204968014200D17CE001211142DE
:1054700031D049464046FEF72FFF8146002800D133
:105480009CE1012302007968083A99437F18BA42E7
:1054900000D13CE1221F242A00D929E10300132A6C
:1054A00000D90BE1320011681960516859609268A7
:1054B0009A6031004046FFF773FE4046FFF700FA5E
:1054C000484649E004339D432B1EB2DA0C23424682
:1054D0000020136040E03A68BA1A93465946032206
:1054E000496891430A00A21801929A42C1DB5B46C7
:1054F0005A465F469268DB680837D3609A60221F7D
:10550000242A00D910E13B00132A09D95B463168EF
:1055100099607168D9601B2A00D921E110330836DF
:105520003268DA461A607268019C5A60B2683E00BE
:105530009A60631B0F2B24D85346012152465B68A7
:105540000B40234353602200524453681943516077
:105550004046FFF7B5F9300005B03CBC904699468F
:10556000A246AB46F0BD032102988C468843011940
:1055700099421FDB019A0C00D3689268D3609A604D
:10558000D7E7524650465119012240681040054362
:105590005046456018001043CB18486058680831E1
:1055A00002435A604046FFF7FBFDD1E71100FEF7CA
:1055B00093FED1E70120104200D05AE760463A68D6
:1055C000BA1A93465268824389180291994200DAC6
:1055D00089E7019A5F46D36892680837D3609A607A
:1055E0005B465A46DB689268D3609A60221F242A81
:1055F00000D991E03B00132A09D95B4631689960D4
:105600007168D9601B2A00D996E0103308363268D9
:10561000029C1A607268DA465A60B2683E009A606C
:1056200087E70320019984464968814328000919C6
:105630001030019081424BDAD20700D519E760465D
:105640003A68BA1A934652688243019851180291F7
:10565000884200DD47E75B465A465F469268DB6852
:105660000837D3609A60221F242A00D997E03B00B4
:10567000132A09D95B46316899607168D9601B2A81
:1056800000D991E01033083632681A6072685A60A7
:10569000B2689A605B4659193B4B40469960029B41
:1056A0005A1B01231A434A605A46526813401D434D
:1056B0005B465D60FFF704F938004DE73168016033
:1056C000716841601B2A17D8320008330832EAE6B5
:1056D0002D4B7A199A600123491B194351607A684E
:1056E000404613401D437D60FFF7EAF8300033E782
:1056F0003100FFF737FEDCE6B16803008160F16836
:10570000C160242A22D0320010331032CBE6536815
:1057100003229343E4180CE731003800FFF722FE20
:105720003E00029CDA4604E731003800FFF71AFE1B
:105730003E00019CDA46FCE65B46B1681961F168FF
:105740005961242A16D01833103660E732690300F5
:105750000261010032007069183318324861A2E614
:105760005B46B1681961F1685961242A0ED018337B
:105770001036D5E65B4632699A615A467169203324
:10578000D161183643E7C0467C0400205B4632698D
:105790009A615A4671692033D1611836C0E63100EA
:1057A0003800FFF7DFFD75E75B46B1681961F16806
:1057B0005961242A07D01833103665E74046FFF7B1
:1057C0007FF80020C8E65B4632699A615A467169E3
:1057D0002033D161183657E703460B437FD40022AC
:1057E00043088B4274D303098B425FD3030A8B4275
:1057F00044D3030B8B4228D3030C8B420DD3FF22DF
:10580000090212BA030C8B4202D31212090265D0AC
:10581000030B8B4219D300E0090AC30B8B4201D35F
:10582000CB03C01A5241830B8B4201D38B03C01AA6
:105830005241430B8B4201D34B03C01A5241030B1D
:105840008B4201D30B03C01A5241C30A8B4201D3CE
:10585000CB02C01A5241830A8B4201D38B02C01A79
:105860005241430A8B4201D34B02C01A5241030AF0
:105870008B4201D30B02C01A5241CDD2C3098B42D5
:1058800001D3CB01C01A524183098B4201D38B0152
:10589000C01A524143098B4201D34B01C01A5241F5
:1058A00003098B4201D30B01C01A5241C3088B423A
:1058B00001D3CB00C01A524183088B4201D38B0025
:1058C000C01A524143088B4201D34B00C01A5241C7
:1058D000411A00D201465241104670475DE0CA0F9E
:1058E00000D04942031000D34042534000229C465E
:1058F00003098B422DD3030A8B4212D3FC22890168
:1059000012BA030A8B420CD3890192118B4208D33D
:10591000890192118B4204D389013AD0921100E09F
:105920008909C3098B4201D3CB01C01A52418309B3
:105930008B4201D38B01C01A524143098B4201D3E0
:105940004B01C01A524103098B4201D30B01C01A0B
:105950005241C3088B4201D3CB00C01A5241830885
:105960008B4201D38B00C01A5241D9D243088B42DB
:1059700001D34B00C01A5241411A00D2014663467E
:1059800052415B10104601D34042002B00D54942E2
:10599000704763465B1000D3404201B50020FBF71F
:1059A00029FF02BD0029F8D016E770478446101C75
:1059B00062468C46191C634600E0C0461FB500F0E5
:1059C000F9FF002801D40021C8421FBD10B500F026
:1059D0004DFF4042013010BD10B500F0EBFF002834
:1059E00001DB002010BD012010BDC04610B500F045
:1059F000E1FF002801DD002010BD012010BDC046E0
:105A000010B500F073FF002801DC002010BD01205C
:105A100010BDC04610B500F069FF002801DA002073
:105A200010BD012010BDC046002B11D1002A0FD19E
:105A3000002900D1002802D00021C943081C07B466
:105A4000024802A14018029003BDC046A9BDFFFF55
:105A500003B4684601B5029800F006F8019B9E4623
:105A600002B00CBC7047C046F0B54D4656464446A1
:105A70005F46F0B4924683B004000D0099468B4215
:105A80002FD82CD04946504601F0BAFE2900060016
:105A9000200001F0B5FE331A9846203B9B4600D506
:105AA00074E053465A4693401F0053464246934083
:105AB0001E00AF4229D826D05B46A41BBD41002B57
:105AC00000DA79E0002200230092019301235A4674
:105AD00093400193012342469340009319E0824290
